:10000000000000308A002528A301A200FF30A207CB
:10001000031CA307031C21280330A100E630122093
:100020000628A101FC3EA000A109031C1D28FF30E9
:100030000000A00703181828A0070000A10F172828
:10004000080083138312031308008312031383161B
:10005000031788018901831287018801831603131E
:100060008601870103178801890183120313860122
:100070008701A6010130A5000130A400133024023D
:100080008A110A1203187E28250886002608870090
:1000900064308A010420043024028A110A120318F1
:1000A0007528013024028A110A12031D5D28A60159
:1000B0000330A5008A110A127228023024028A1124
:1000C0000A12031D6928A6010730A5008A110A1229
:1000D0007228033024028A110A12031D7228A60115
:1000E0000F30A5008A110A1278280310A50DA60D5D
:1000F0000130A4078A110A12031C3E280130A40013
:10010000133024028A110A120318C0282508860019
:100110002608870064308A010420043024028A11F2
:100120000A120318B728013024028A110A12031D8B
:100130009F28C030A600A5018A110A12B4280230F7
:1001400024028A110A12031DAB28E030A600A50183
:100150008A110A12B428033024028A110A12031DDC
:10016000B428F030A600A5018A110A12BA2803109B
:10017000A60CA50C0130A4078A110A12031C8028C2
:080180008A0139288A01C22816
:02400E00FF3F72
:02401000FF3F70
:00000001FF
